:100000000C9446000C945D000C945D000C945D0013
:100010000C945D000C945D000C945D000C945D00EC
:100020000C945D000C945D000C945D000C945D00DC
:100030000C945D000C945D000C945D000C945D00CC
:100040000C945D000C945D000C945D000C945D00BC
:100050000C945D000C945D000C945D000C945D00AC
:100060000C945D000C945D000C945D000C945D009C
:100070000C945D000C945D000C945D000C945D008C
:100080000C945D000C945D000C945D0011241FBE67
:10009000CFEFD0E4DEBFCDBF11E0A0E0B1E0E8EFEC
:1000A000F1E000E00BBF02C007900D92AE30B10747
:1000B000D9F70E9488000C94FA000C940000CF93AA
:1000C000DF9300D01F92CDB7DEB789837B836A832D
:1000D00089818A3031F48A819B81BC018DE00E9444
:1000E0005F0080EC90E0FC018081882F90E08072BE
:1000F00099270097B1F386EC90E02981FC012083D9
:1001000080E090E00F900F900F90DF91CF910895D5
:10011000CF93DF9300D0CDB7DEB781E290E0FC0152
:10012000108282E290E02FEFFC01208387E290E0D2
:100130002FEFFC01208388E290E0FC01108280E236
:1001400090E0FC0180818A8319828A81882F90E067
:100150008F7099278D3091051CF08FE3898339C00A
:100160008A81882F90E08F7099278A3091051CF042
:100170008EE389832EC08A81882F90E08F70992723
:10018000873091051CF08CE3898323C08A81882FF6
:1001900090E08F709927853091051CF088E3898362
:1001A00018C08A81882F90E08F709927833091053D
:1001B0001CF080E789830DC08A81882F90E08F70C2
:1001C0009927181619061CF480E6898302C080E47A
:1001D00089838A81882F90E08077992780339105E1
:1001E00019F489818068898388E290E02981FC0183
:0801F0002083A5CFF894FFCF96
:0E01F80000000002000000005F000000000098
:00000001FF
