:100000000C9446000C945D000C945D000C945D0013
:100010000C945D000C945D000C945D000C945D00EC
:100020000C945D000C945D000C945D000C945D00DC
:100030000C945D000C945D000C945D000C945D00CC
:100040000C945D000C945D000C945D000C945D00BC
:100050000C945D000C945D000C945D000C945D00AC
:100060000C945D000C945D000C945D000C945D009C
:100070000C945D000C945D000C945D000C945D008C
:100080000C945D000C945D000C945D0011241FBE67
:10009000CFEFD0E4DEBFCDBF11E0A0E0B1E0E0E003
:1000A000F2E000E00BBF02C007900D92AE30B10746
:1000B000D9F70E9488000C94FE000C940000CF93A6
:1000C000DF9300D01F92CDB7DEB789837B836A832D
:1000D00089818A3031F48A819B81BC018DE00E9444
:1000E0005F0080EC90E0FC018081882F90E08072BE
:1000F00099270097B1F386EC90E02981FC012083D9
:1001000080E090E00F900F900F90DF91CF910895D5
:10011000CF93DF931F92CDB7DEB781E290E0FC0171
:10012000108282E290E02FEFFC01208387E290E0D2
:100130002FEFFC01208388E290E0FC01108280E236
:1001400090E0FC01808189838981882F90E08F7005
:1001500099278D30910534F088E290E02FE3FC017F
:1001600020834BC08981882F90E08F7099278A3037
:10017000910534F088E290E02EE3FC0120833DC03D
:100180008981882F90E08F7099278730910534F00E
:1001900088E290E02CE3FC0120832FC08981882F26
:1001A00090E08F7099278530910534F088E290E0D7
:1001B00028E3FC01208321C08981882F90E08F7083
:1001C00099278330910534F088E290E020E7FC0124
:1001D000208313C08981882F90E08F70992718168B
:1001E000190634F488E290E020E6FC01208305C083
:1001F00088E290E020E4FC012083A1CFF894FFCFB7
:0E02000000000002000000005F00000000008F
:00000001FF
